:10100000FFFFFFFFFFFFFFFFFFFFFFFFFFFFFFFFF0
:10101000FFFFFFFF000000000000000000000000D4
:108000000A8000000880000001A001419790FFFF56
:10801000938040FF416123A020009790FFFF938051
:10802000A0FE056123A020009790FFFF938000FE33
:10803000216123A020009790FFFF938060FD7D6168
:1080400023A020009790FFFF9380C0FC017123A024
:1080500020000F00F00F85417300000001000000B8
:0280600000001E
:040000030000800079
:00000001FF
